{
  "contractName": "ClientContributions",
  "abi": [
    {
      "anonymous": false,
      "inputs": [
        {
          "indexed": true,
          "internalType": "address",
          "name": "client",
          "type": "address"
        },
        {
          "indexed": false,
          "internalType": "uint256[10]",
          "name": "newContributions",
          "type": "uint256[10]"
        }
      ],
      "name": "ContributionsUpdated",
      "type": "event"
    },
    {
      "inputs": [
        {
          "internalType": "address",
          "name": "",
          "type": "address"
        },
        {
          "internalType": "uint256",
          "name": "",
          "type": "uint256"
        }
      ],
      "name": "contributions",
      "outputs": [
        {
          "internalType": "uint256",
          "name": "",
          "type": "uint256"
        }
      ],
      "stateMutability": "view",
      "type": "function",
      "constant": true
    },
    {
      "stateMutability": "payable",
      "type": "receive",
      "payable": true
    },
    {
      "inputs": [
        {
          "internalType": "address",
          "name": "client",
          "type": "address"
        },
        {
          "internalType": "uint256[10]",
          "name": "newContributions",
          "type": "uint256[10]"
        }
      ],
      "name": "setContributions",
      "outputs": [],
      "stateMutability": "nonpayable",
      "type": "function"
    },
    {
      "inputs": [
        {
          "internalType": "address",
          "name": "client",
          "type": "address"
        }
      ],
      "name": "getContributions",
      "outputs": [
        {
          "internalType": "uint256[10]",
          "name": "",
          "type": "uint256[10]"
        }
      ],
      "stateMutability": "view",
      "type": "function",
      "constant": true
    },
    {
      "inputs": [
        {
          "internalType": "address payable",
          "name": "recipient",
          "type": "address"
        },
        {
          "internalType": "uint256",
          "name": "amount",
          "type": "uint256"
        }
      ],
      "name": "transferEther",
      "outputs": [],
      "stateMutability": "nonpayable",
      "type": "function"
    },
    {
      "inputs": [],
      "name": "depositEther",
      "outputs": [],
      "stateMutability": "payable",
      "type": "function",
      "payable": true
    },
    {
      "inputs": [],
      "name": "getBalance",
      "outputs": [
        {
          "internalType": "uint256",
          "name": "",
          "type": "uint256"
        }
      ],
      "stateMutability": "view",
      "type": "function",
      "constant": true
    }
  ],
  "bytecode": "0x608060405234801561001057600080fd5b50610895806100206000396000f3fe6080604052600436106100595760003560e01c806305b1137b1461006557806312065fe01461008e5780633f19d043146100b957806345f4d2ec146100f6578063550b521c1461011f57806398ea5fca1461015c57610060565b3661006057005b600080fd5b34801561007157600080fd5b5061008c600480360381019061008791906104bb565b610166565b005b34801561009a57600080fd5b506100a361025a565b6040516100b09190610704565b60405180910390f35b3480156100c557600080fd5b506100e060048036038101906100db9190610492565b610262565b6040516100ed91906106a8565b60405180910390f35b34801561010257600080fd5b5061011d600480360381019061011891906104f7565b6102eb565b005b34801561012b57600080fd5b5061014660048036038101906101419190610534565b61038b565b6040516101539190610704565b60405180910390f35b6101646103b3565b005b804710156101a9576040517f08c379a00000000000000000000000000000000000000000000000000000000081526004016101a0906106e4565b60405180910390fd5b60008273ffffffffffffffffffffffffffffffffffffffff16826040516101cf90610677565b60006040518083038185875af1925050503d806000811461020c576040519150601f19603f3d011682016040523d82523d6000602084013e610211565b606091505b5050905080610255576040517f08c379a000000000000000000000000000000000000000000000000000000000815260040161024c906106c4565b60405180910390fd5b505050565b600047905090565b61026a6103b5565b6000808373ffffffffffffffffffffffffffffffffffffffff1673ffffffffffffffffffffffffffffffffffffffff168152602001908152602001600020600a806020026040519081016040528092919082600a80156102df576020028201915b8154815260200190600101908083116102cb575b50505050509050919050565b806000808473ffffffffffffffffffffffffffffffffffffffff1673ffffffffffffffffffffffffffffffffffffffff16815260200190815260200160002090600a6103389291906103d8565b508173ffffffffffffffffffffffffffffffffffffffff167f40bdf7c76e36d0a3a8d78830af9e3e7720db44ae5b7accdd8d111c8d001fbee28260405161037f919061068c565b60405180910390a25050565b600060205281600052604060002081600a81106103a757600080fd5b01600091509150505481565b565b604051806101400160405280600a90602082028036833780820191505090505090565b82600a8101928215610407579160200282015b828111156104065782358255916020019190600101906103eb565b5b5090506104149190610418565b5090565b5b80821115610431576000816000905550600101610419565b5090565b6000813590506104448161081a565b92915050565b60008135905061045981610831565b92915050565b6000819050826020600a028201111561047757600080fd5b92915050565b60008135905061048c81610848565b92915050565b6000602082840312156104a457600080fd5b60006104b284828501610435565b91505092915050565b600080604083850312156104ce57600080fd5b60006104dc8582860161044a565b92505060206104ed8582860161047d565b9150509250929050565b600080610160838503121561050b57600080fd5b600061051985828601610435565b925050602061052a8582860161045f565b9150509250929050565b6000806040838503121561054757600080fd5b600061055585828601610435565b92505060206105668582860161047d565b9150509250929050565b600061057c8383610659565b60208301905092915050565b61059561014083836107b6565b5050565b6105a281610729565b6105ac8184610741565b92506105b78261071f565b8060005b838110156105e85781516105cf8782610570565b96506105da83610734565b9250506001810190506105bb565b505050505050565b60006105fd601483610757565b9150610608826107c5565b602082019050919050565b600061062060008361074c565b915061062b826107ee565b600082019050919050565b6000610643602083610757565b915061064e826107f1565b602082019050919050565b610662816107ac565b82525050565b610671816107ac565b82525050565b600061068282610613565b9150819050919050565b6000610140820190506106a26000830184610588565b92915050565b6000610140820190506106be6000830184610599565b92915050565b600060208201905081810360008301526106dd816105f0565b9050919050565b600060208201905081810360008301526106fd81610636565b9050919050565b60006020820190506107196000830184610668565b92915050565b6000819050919050565b6000600a9050919050565b6000602082019050919050565b600081905092915050565b600081905092915050565b600082825260208201905092915050565b60006107738261078c565b9050919050565b60006107858261078c565b9050919050565b600073ffffffffffffffffffffffffffffffffffffffff82169050919050565b6000819050919050565b82818337600083830152505050565b7f4661696c656420746f2073656e64204574686572000000000000000000000000600082015250565b50565b7f496e73756666696369656e742062616c616e636520746f207472616e73666572600082015250565b61082381610768565b811461082e57600080fd5b50565b61083a8161077a565b811461084557600080fd5b50565b610851816107ac565b811461085c57600080fd5b5056fea264697066735822122050f57e78900eaf96a8c43d2e5fc8c86312555b1039b1cf96493439ff18e5ab0d64736f6c63430008020033",
  "immutableReferences": {},
  "source": "// SPDX-License-Identifier: MIT\npragma solidity ^0.8.0;\n\ncontract ClientContributions {\n    // Mapping from client address to their contributions (array of 10 integers)\n    mapping(address => uint256[10]) public contributions;\n\n    // Event for logging updates to contributions\n    event ContributionsUpdated(\n        address indexed client,\n        uint256[10] newContributions\n    );\n\n    // Function to update or set the contributions for a client\n    function setContributions(\n        address client,\n        uint256[10] calldata newContributions\n    ) public {\n        contributions[client] = newContributions;\n        emit ContributionsUpdated(client, newContributions);\n    }\n\n    // Function to retrieve contributions for a client\n    function getContributions(\n        address client\n    ) public view returns (uint256[10] memory) {\n        return contributions[client];\n    }\n\n    // Function to transfer Ether from this contract to a specified recipient\n    function transferEther(address payable recipient, uint256 amount) public {\n        require(\n            address(this).balance >= amount,\n            \"Insufficient balance to transfer\"\n        );\n        // Perform the transfer\n        (bool success, ) = recipient.call{value: amount}(\"\");\n        require(success, \"Failed to send Ether\");\n    }\n\n    // Fallback function to accept Ether when sent to the contract\n    receive() external payable {}\n\n    // Function to allow manual sending of Ether to the contract\n    function depositEther() public payable {}\n\n    // Function to check the contract's balance\n    function getBalance() public view returns (uint256) {\n        return address(this).balance;\n    }\n}\n",
  "sourcePath": "/Users/aranmahal/Desktop/University/Year 4/Masters Project/Masters Project Code/contracts/ClientContributions.sol",
  "compiler": {
    "name": "solc",
    "version": "0.8.2+commit.661d1103.Emscripten.clang"
  },
  "schemaVersion": "3.4.16",
  "updatedAt": "2024-05-09T21:14:27.717Z",
  "networkType": "ethereum",
  "devdoc": {
    "kind": "dev",
    "methods": {},
    "version": 1
  },
  "userdoc": {
    "kind": "user",
    "methods": {},
    "version": 1
  }
}