{
  "contractName": "ClientContributions",
  "abi": [
    {
      "anonymous": false,
      "inputs": [
        {
          "indexed": true,
          "internalType": "address",
          "name": "client",
          "type": "address"
        },
        {
          "indexed": false,
          "internalType": "uint256[10]",
          "name": "newContributions",
          "type": "uint256[10]"
        }
      ],
      "name": "ContributionsUpdated",
      "type": "event"
    },
    {
      "inputs": [
        {
          "internalType": "address",
          "name": "",
          "type": "address"
        },
        {
          "internalType": "uint256",
          "name": "",
          "type": "uint256"
        }
      ],
      "name": "contributions",
      "outputs": [
        {
          "internalType": "uint256",
          "name": "",
          "type": "uint256"
        }
      ],
      "stateMutability": "view",
      "type": "function",
      "constant": true
    },
    {
      "inputs": [
        {
          "internalType": "address",
          "name": "client",
          "type": "address"
        },
        {
          "internalType": "uint256[10]",
          "name": "newContributions",
          "type": "uint256[10]"
        }
      ],
      "name": "setContributions",
      "outputs": [],
      "stateMutability": "nonpayable",
      "type": "function"
    },
    {
      "inputs": [
        {
          "internalType": "address",
          "name": "client",
          "type": "address"
        }
      ],
      "name": "getContributions",
      "outputs": [
        {
          "internalType": "uint256[10]",
          "name": "",
          "type": "uint256[10]"
        }
      ],
      "stateMutability": "view",
      "type": "function",
      "constant": true
    }
  ],
  "bytecode": "0x608060405234801561001057600080fd5b5061054a806100206000396000f3fe608060405234801561001057600080fd5b50600436106100415760003560e01c80633f19d0431461004657806345f4d2ec14610076578063550b521c14610092575b600080fd5b610060600480360381019061005b91906102db565b6100c2565b60405161006d9190610437565b60405180910390f35b610090600480360381019061008b9190610304565b61014b565b005b6100ac60048036038101906100a79190610341565b6101eb565b6040516100b99190610453565b60405180910390f35b6100ca610213565b6000808373ffffffffffffffffffffffffffffffffffffffff1673ffffffffffffffffffffffffffffffffffffffff168152602001908152602001600020600a806020026040519081016040528092919082600a801561013f576020028201915b81548152602001906001019080831161012b575b50505050509050919050565b806000808473ffffffffffffffffffffffffffffffffffffffff1673ffffffffffffffffffffffffffffffffffffffff16815260200190815260200160002090600a610198929190610236565b508173ffffffffffffffffffffffffffffffffffffffff167f40bdf7c76e36d0a3a8d78830af9e3e7720db44ae5b7accdd8d111c8d001fbee2826040516101df919061041b565b60405180910390a25050565b600060205281600052604060002081600a811061020757600080fd5b01600091509150505481565b604051806101400160405280600a90602082028036833780820191505090505090565b82600a8101928215610265579160200282015b82811115610264578235825591602001919060010190610249565b5b5090506102729190610276565b5090565b5b8082111561028f576000816000905550600101610277565b5090565b6000813590506102a2816104e6565b92915050565b6000819050826020600a02820111156102c057600080fd5b92915050565b6000813590506102d5816104fd565b92915050565b6000602082840312156102ed57600080fd5b60006102fb84828501610293565b91505092915050565b600080610160838503121561031857600080fd5b600061032685828601610293565b9250506020610337858286016102a8565b9150509250929050565b6000806040838503121561035457600080fd5b600061036285828601610293565b9250506020610373858286016102c6565b9150509250929050565b600061038983836103fd565b60208301905092915050565b6103a261014083836104d7565b5050565b6103af81610478565b6103b98184610490565b92506103c48261046e565b8060005b838110156103f55781516103dc878261037d565b96506103e783610483565b9250506001810190506103c8565b505050505050565b610406816104cd565b82525050565b610415816104cd565b82525050565b6000610140820190506104316000830184610395565b92915050565b60006101408201905061044d60008301846103a6565b92915050565b6000602082019050610468600083018461040c565b92915050565b6000819050919050565b6000600a9050919050565b6000602082019050919050565b600081905092915050565b60006104a6826104ad565b9050919050565b600073ffffffffffffffffffffffffffffffffffffffff82169050919050565b6000819050919050565b82818337600083830152505050565b6104ef8161049b565b81146104fa57600080fd5b50565b610506816104cd565b811461051157600080fd5b5056fea2646970667358221220cadba801ec4617f7ef2b27d2957410ba8571c276d386c390adbe956536b912c064736f6c63430008020033",
  "immutableReferences": {},
  "source": "// SPDX-License-Identifier: MIT\npragma solidity ^0.8.0;\n\ncontract ClientContributions {\n    // Mapping from client address to their contributions (array of 10 integers)\n    mapping(address => uint256[10]) public contributions;\n\n    // Event for logging updates to contributions\n    event ContributionsUpdated(\n        address indexed client,\n        uint256[10] newContributions\n    );\n\n    // Function to update or set the contributions for a client\n    function setContributions(\n        address client,\n        uint256[10] calldata newContributions\n    ) public {\n        contributions[client] = newContributions;\n        emit ContributionsUpdated(client, newContributions);\n    }\n\n    // Function to retrieve contributions for a client\n    function getContributions(\n        address client\n    ) public view returns (uint256[10] memory) {\n        return contributions[client];\n    }\n}\n",
  "sourcePath": "/Users/aranmahal/Desktop/University/Year 4/Masters Project/Masters Project Code/contracts/ClientContributions.sol",
  "compiler": {
    "name": "solc",
    "version": "0.8.2+commit.661d1103.Emscripten.clang"
  },
  "schemaVersion": "3.4.16",
  "updatedAt": "2024-05-07T20:14:03.033Z",
  "networkType": "ethereum",
  "devdoc": {
    "kind": "dev",
    "methods": {},
    "version": 1
  },
  "userdoc": {
    "kind": "user",
    "methods": {},
    "version": 1
  }
}