{
  "contractName": "FileStorage",
  "abi": [
    {
      "inputs": [
        {
          "internalType": "uint256",
          "name": "",
          "type": "uint256"
        }
      ],
      "name": "clientAddresses",
      "outputs": [
        {
          "internalType": "address",
          "name": "",
          "type": "address"
        }
      ],
      "stateMutability": "view",
      "type": "function",
      "constant": true
    },
    {
      "inputs": [
        {
          "internalType": "address",
          "name": "",
          "type": "address"
        },
        {
          "internalType": "uint256",
          "name": "",
          "type": "uint256"
        }
      ],
      "name": "clientFiles",
      "outputs": [
        {
          "internalType": "string",
          "name": "",
          "type": "string"
        }
      ],
      "stateMutability": "view",
      "type": "function",
      "constant": true
    },
    {
      "inputs": [
        {
          "internalType": "uint256",
          "name": "",
          "type": "uint256"
        },
        {
          "internalType": "uint256",
          "name": "",
          "type": "uint256"
        }
      ],
      "name": "confusionMatrix",
      "outputs": [
        {
          "internalType": "uint256",
          "name": "",
          "type": "uint256"
        }
      ],
      "stateMutability": "view",
      "type": "function",
      "constant": true
    },
    {
      "inputs": [],
      "name": "lastUpdated",
      "outputs": [
        {
          "internalType": "string",
          "name": "",
          "type": "string"
        }
      ],
      "stateMutability": "view",
      "type": "function",
      "constant": true
    },
    {
      "inputs": [
        {
          "internalType": "address",
          "name": "clientAddress",
          "type": "address"
        },
        {
          "internalType": "string",
          "name": "_dataPath",
          "type": "string"
        }
      ],
      "name": "addClientData",
      "outputs": [],
      "stateMutability": "nonpayable",
      "type": "function"
    },
    {
      "inputs": [
        {
          "internalType": "address",
          "name": "_client",
          "type": "address"
        },
        {
          "internalType": "uint256",
          "name": "index",
          "type": "uint256"
        }
      ],
      "name": "getClientData",
      "outputs": [
        {
          "internalType": "string",
          "name": "dataPath",
          "type": "string"
        }
      ],
      "stateMutability": "view",
      "type": "function",
      "constant": true
    },
    {
      "inputs": [
        {
          "internalType": "address",
          "name": "client",
          "type": "address"
        }
      ],
      "name": "getClientFileCount",
      "outputs": [
        {
          "internalType": "uint256",
          "name": "",
          "type": "uint256"
        }
      ],
      "stateMutability": "view",
      "type": "function",
      "constant": true
    },
    {
      "inputs": [],
      "name": "getAllClientAddresses",
      "outputs": [
        {
          "internalType": "address[]",
          "name": "",
          "type": "address[]"
        }
      ],
      "stateMutability": "view",
      "type": "function",
      "constant": true
    },
    {
      "inputs": [
        {
          "internalType": "string",
          "name": "_newUpdate",
          "type": "string"
        }
      ],
      "name": "setLastUpdated",
      "outputs": [],
      "stateMutability": "nonpayable",
      "type": "function"
    },
    {
      "inputs": [],
      "name": "getLastUpdated",
      "outputs": [
        {
          "internalType": "string",
          "name": "",
          "type": "string"
        }
      ],
      "stateMutability": "view",
      "type": "function",
      "constant": true
    },
    {
      "inputs": [],
      "name": "initializeConfusionMatrix",
      "outputs": [],
      "stateMutability": "nonpayable",
      "type": "function"
    },
    {
      "inputs": [
        {
          "internalType": "uint256",
          "name": "row",
          "type": "uint256"
        },
        {
          "internalType": "uint256",
          "name": "col",
          "type": "uint256"
        }
      ],
      "name": "getConfusionMatrixValue",
      "outputs": [
        {
          "internalType": "uint256",
          "name": "",
          "type": "uint256"
        }
      ],
      "stateMutability": "view",
      "type": "function",
      "constant": true
    },
    {
      "inputs": [
        {
          "internalType": "uint256",
          "name": "rowIndex",
          "type": "uint256"
        },
        {
          "internalType": "uint256[10]",
          "name": "newRow",
          "type": "uint256[10]"
        }
      ],
      "name": "updateConfusionMatrixRow",
      "outputs": [],
      "stateMutability": "nonpayable",
      "type": "function"
    }
  ],
  "bytecode": "0x60806040526040518060400160405280601881526020017f4e6f2063757272656e7420636f6e747269627574696f6e730000000000000000815250600090805190602001906200005192919062000066565b503480156200005f57600080fd5b506200017b565b828054620000749062000116565b90600052602060002090601f016020900481019282620000985760008555620000e4565b82601f10620000b357805160ff1916838001178555620000e4565b82800160010185558215620000e4579182015b82811115620000e3578251825591602001919060010190620000c6565b5b509050620000f39190620000f7565b5090565b5b8082111562000112576000816000905550600101620000f8565b5090565b600060028204905060018216806200012f57607f821691505b602082108114156200014657620001456200014c565b5b50919050565b7f4e487b7100000000000000000000000000000000000000000000000000000000600052602260045260246000fd5b611335806200018b6000396000f3fe608060405234801561001057600080fd5b50600436106100cf5760003560e01c806396df59311161008c578063cdf9b47911610066578063cdf9b47914610224578063d0b06f5d14610242578063f1987e1114610260578063f1fa14a614610290576100cf565b806396df5931146101ba578063b04792ba146101c4578063bd9302cc146101f4576100cf565b806304aa3d3b146100d457806308949c34146101045780632a3fe0da146101345780634e177af41461016457806378121dd4146101805780637ee322791461019e575b600080fd5b6100ee60048036038101906100e99190610e60565b6102ac565b6040516100fb919061101a565b60405180910390f35b61011e60048036038101906101199190610d7d565b61037d565b60405161012b9190610fd8565b60405180910390f35b61014e60048036038101906101499190610e60565b610491565b60405161015b919061101a565b60405180910390f35b61017e60048036038101906101799190610db9565b6104bf565b005b6101886104d9565b6040516101959190610fd8565b60405180910390f35b6101b860048036038101906101b39190610d25565b61056b565b005b6101c261069a565b005b6101de60048036038101906101d99190610d7d565b610759565b6040516101eb9190610fd8565b60405180910390f35b61020e60048036038101906102099190610cfc565b610812565b60405161021b919061101a565b60405180910390f35b61022c61085e565b6040516102399190610fb6565b60405180910390f35b61024a6108ec565b6040516102579190610fd8565b60405180910390f35b61027a60048036038101906102759190610dfa565b61097a565b6040516102879190610f9b565b60405180910390f35b6102aa60048036038101906102a59190610e23565b6109b9565b005b6000600a831080156102be5750600a82105b6102fd576040517f08c379a00000000000000000000000000000000000000000000000000000000081526004016102f490610ffa565b60405180910390fd5b600183600a8110610337577f4e487b7100000000000000000000000000000000000000000000000000000000600052603260045260246000fd5b600a020182600a8110610373577f4e487b7100000000000000000000000000000000000000000000000000000000600052603260045260246000fd5b0154905092915050565b6060606560008473ffffffffffffffffffffffffffffffffffffffff1673ffffffffffffffffffffffffffffffffffffffff16815260200190815260200160002082815481106103f6577f4e487b7100000000000000000000000000000000000000000000000000000000600052603260045260246000fd5b90600052602060002001805461040b9061115e565b80601f01602080910402602001604051908101604052809291908181526020018280546104379061115e565b80156104845780601f1061045957610100808354040283529160200191610484565b820191906000526020600020905b81548152906001019060200180831161046757829003601f168201915b5050505050905092915050565b600182600a81106104a157600080fd5b600a020181600a81106104b357600080fd5b01600091509150505481565b80600090805190602001906104d5929190610ad9565b5050565b6060600080546104e89061115e565b80601f01602080910402602001604051908101604052809291908181526020018280546105149061115e565b80156105615780601f1061053657610100808354040283529160200191610561565b820191906000526020600020905b81548152906001019060200180831161054457829003601f168201915b5050505050905090565b606560008473ffffffffffffffffffffffffffffffffffffffff1673ffffffffffffffffffffffffffffffffffffffff1681526020019081526020016000208282909180600181540180825580915050600190039060005260206000200160009091929091929091929091925091906105e5929190610b5f565b506001606560008573ffffffffffffffffffffffffffffffffffffffff1673ffffffffffffffffffffffffffffffffffffffff168152602001908152602001600020805490501415610695576066839080600181540180825580915050600190039060005260206000200160009091909190916101000a81548173ffffffffffffffffffffffffffffffffffffffff021916908373ffffffffffffffffffffffffffffffffffffffff1602179055505b505050565b60005b600a8110156107565760005b600a811015610742576000600183600a81106106ee577f4e487b7100000000000000000000000000000000000000000000000000000000600052603260045260246000fd5b600a020182600a811061072a577f4e487b7100000000000000000000000000000000000000000000000000000000600052603260045260246000fd5b0181905550808061073a906111c1565b9150506106a9565b50808061074e906111c1565b91505061069d565b50565b6065602052816000526040600020818154811061077557600080fd5b906000526020600020016000915091505080546107919061115e565b80601f01602080910402602001604051908101604052809291908181526020018280546107bd9061115e565b801561080a5780601f106107df5761010080835404028352916020019161080a565b820191906000526020600020905b8154815290600101906020018083116107ed57829003601f168201915b505050505081565b6000606560008373ffffffffffffffffffffffffffffffffffffffff1673ffffffffffffffffffffffffffffffffffffffff168152602001908152602001600020805490509050919050565b606060668054806020026020016040519081016040528092919081815260200182805480156108e257602002820191906000526020600020905b8160009054906101000a900473ffffffffffffffffffffffffffffffffffffffff1673ffffffffffffffffffffffffffffffffffffffff1681526020019060010190808311610898575b5050505050905090565b600080546108f99061115e565b80601f01602080910402602001604051908101604052809291908181526020018280546109259061115e565b80156109725780601f1061094757610100808354040283529160200191610972565b820191906000526020600020905b81548152906001019060200180831161095557829003601f168201915b505050505081565b6066818154811061098a57600080fd5b906000526020600020016000915054906101000a900473ffffffffffffffffffffffffffffffffffffffff1681565b600a82106109fc576040517f08c379a00000000000000000000000000000000000000000000000000000000081526004016109f390610ffa565b60405180910390fd5b60005b600a811015610ad4578181600a8110610a41577f4e487b7100000000000000000000000000000000000000000000000000000000600052603260045260246000fd5b6020020135600184600a8110610a80577f4e487b7100000000000000000000000000000000000000000000000000000000600052603260045260246000fd5b600a020182600a8110610abc577f4e487b7100000000000000000000000000000000000000000000000000000000600052603260045260246000fd5b01819055508080610acc906111c1565b9150506109ff565b505050565b828054610ae59061115e565b90600052602060002090601f016020900481019282610b075760008555610b4e565b82601f10610b2057805160ff1916838001178555610b4e565b82800160010185558215610b4e579182015b82811115610b4d578251825591602001919060010190610b32565b5b509050610b5b9190610be5565b5090565b828054610b6b9061115e565b90600052602060002090601f016020900481019282610b8d5760008555610bd4565b82601f10610ba657803560ff1916838001178555610bd4565b82800160010185558215610bd4579182015b82811115610bd3578235825591602001919060010190610bb8565b5b509050610be19190610be5565b5090565b5b80821115610bfe576000816000905550600101610be6565b5090565b6000610c15610c108461105a565b611035565b905082815260208101848484011115610c2d57600080fd5b610c3884828561111c565b509392505050565b600081359050610c4f816112d1565b92915050565b6000819050826020600a0282011115610c6d57600080fd5b92915050565b60008083601f840112610c8557600080fd5b8235905067ffffffffffffffff811115610c9e57600080fd5b602083019150836001820283011115610cb657600080fd5b9250929050565b600082601f830112610cce57600080fd5b8135610cde848260208601610c02565b91505092915050565b600081359050610cf6816112e8565b92915050565b600060208284031215610d0e57600080fd5b6000610d1c84828501610c40565b91505092915050565b600080600060408486031215610d3a57600080fd5b6000610d4886828701610c40565b935050602084013567ffffffffffffffff811115610d6557600080fd5b610d7186828701610c73565b92509250509250925092565b60008060408385031215610d9057600080fd5b6000610d9e85828601610c40565b9250506020610daf85828601610ce7565b9150509250929050565b600060208284031215610dcb57600080fd5b600082013567ffffffffffffffff811115610de557600080fd5b610df184828501610cbd565b91505092915050565b600060208284031215610e0c57600080fd5b6000610e1a84828501610ce7565b91505092915050565b6000806101608385031215610e3757600080fd5b6000610e4585828601610ce7565b9250506020610e5685828601610c55565b9150509250929050565b60008060408385031215610e7357600080fd5b6000610e8185828601610ce7565b9250506020610e9285828601610ce7565b9150509250929050565b6000610ea88383610eb4565b60208301905092915050565b610ebd816110e0565b82525050565b610ecc816110e0565b82525050565b6000610edd8261109b565b610ee781856110be565b9350610ef28361108b565b8060005b83811015610f23578151610f0a8882610e9c565b9750610f15836110b1565b925050600181019050610ef6565b5085935050505092915050565b6000610f3b826110a6565b610f4581856110cf565b9350610f5581856020860161112b565b610f5e81611297565b840191505092915050565b6000610f766013836110cf565b9150610f81826112a8565b602082019050919050565b610f9581611112565b82525050565b6000602082019050610fb06000830184610ec3565b92915050565b60006020820190508181036000830152610fd08184610ed2565b905092915050565b60006020820190508181036000830152610ff28184610f30565b905092915050565b6000602082019050818103600083015261101381610f69565b9050919050565b600060208201905061102f6000830184610f8c565b92915050565b600061103f611050565b905061104b8282611190565b919050565b6000604051905090565b600067ffffffffffffffff82111561107557611074611268565b5b61107e82611297565b9050602081019050919050565b6000819050602082019050919050565b600081519050919050565b600081519050919050565b6000602082019050919050565b600082825260208201905092915050565b600082825260208201905092915050565b60006110eb826110f2565b9050919050565b600073ffffffffffffffffffffffffffffffffffffffff82169050919050565b6000819050919050565b82818337600083830152505050565b60005b8381101561114957808201518184015260208101905061112e565b83811115611158576000848401525b50505050565b6000600282049050600182168061117657607f821691505b6020821081141561118a57611189611239565b5b50919050565b61119982611297565b810181811067ffffffffffffffff821117156111b8576111b7611268565b5b80604052505050565b60006111cc82611112565b91507fffffffffffffffffffffffffffffffffffffffffffffffffffffffffffffffff8214156111ff576111fe61120a565b5b600182019050919050565b7f4e487b7100000000000000000000000000000000000000000000000000000000600052601160045260246000fd5b7f4e487b7100000000000000000000000000000000000000000000000000000000600052602260045260246000fd5b7f4e487b7100000000000000000000000000000000000000000000000000000000600052604160045260246000fd5b6000601f19601f8301169050919050565b7f496e646578206f7574206f6620626f756e647300000000000000000000000000600082015250565b6112da816110e0565b81146112e557600080fd5b50565b6112f181611112565b81146112fc57600080fd5b5056fea264697066735822122032ac6336254afd172ef673c9c94c47091f9c43c18e159695a0db2e1d8c29f15764736f6c63430008020033",
  "immutableReferences": {},
  "source": "// SPDX-License-Identifier: MIT\npragma solidity ^0.8.0;\n\ncontract FileStorage {\n    struct ClientData {\n        string dataPath;\n    }\n\n    string public lastUpdated = \"No current contributions\";\n    uint256[10][10] public confusionMatrix;\n    mapping(address => string[]) public clientFiles;\n    address[] public clientAddresses; // Array to track all client addresses\n\n    function addClientData(\n        address clientAddress,\n        string calldata _dataPath\n    ) public {\n        // Security checks needed here to ensure only authorized users can call this function\n        clientFiles[clientAddress].push(_dataPath);\n        if (clientFiles[clientAddress].length == 1) {\n            clientAddresses.push(clientAddress); // Add new client address to the array\n        }\n    }\n\n    function getClientData(\n        address _client,\n        uint index\n    ) public view returns (string memory dataPath) {\n        return clientFiles[_client][index];\n    }\n\n    function getClientFileCount(address client) public view returns (uint) {\n        return clientFiles[client].length;\n    }\n\n    function getAllClientAddresses() public view returns (address[] memory) {\n        return clientAddresses;\n    }\n\n    // Function to update the last updated timestamp\n    function setLastUpdated(string memory _newUpdate) public {\n        lastUpdated = _newUpdate;\n    }\n\n    // Function to get the last updated timestamp\n    function getLastUpdated() public view returns (string memory) {\n        return lastUpdated;\n    }\n\n    // Initialize the confusion matrix with zeros\n    function initializeConfusionMatrix() public {\n        for (uint i = 0; i < 10; i++) {\n            for (uint j = 0; j < 10; j++) {\n                confusionMatrix[i][j] = 0;\n            }\n        }\n    }\n\n    // Get a specific value from the confusion matrix\n    function getConfusionMatrixValue(\n        uint row,\n        uint col\n    ) public view returns (uint256) {\n        require(row < 10 && col < 10, \"Index out of bounds\");\n        return confusionMatrix[row][col];\n    }\n\n    // Update an entire row in the confusion matrix\n    function updateConfusionMatrixRow(\n        uint rowIndex,\n        uint256[10] calldata newRow\n    ) public {\n        require(rowIndex < 10, \"Index out of bounds\");\n        for (uint j = 0; j < 10; j++) {\n            confusionMatrix[rowIndex][j] = newRow[j];\n        }\n    }\n}\n\n// contract FileStorage {\n//     struct ClientData {\n//         string dataPath;\n//     }\n\n//     string public lastUpdated = \"No current contributions\";\n//     uint256[10][10] public confusionMatrix;\n//     // mapping(address => ClientData) public clientData;\n//     mapping(address => string[]) public clientDataPaths;\n//     address[] public clientAddresses; // Array to track all client addresses\n\n//     // Function to update the last updated timestamp\n//     function setLastUpdated(string memory _newUpdate) public {\n//         lastUpdated = _newUpdate;\n//     }\n\n//     // Function to get the last updated timestamp\n//     function getLastUpdated() public view returns (string memory) {\n//         return lastUpdated;\n//     }\n\n//     // Initialize the confusion matrix with zeros\n//     function initializeConfusionMatrix() public {\n//         for (uint i = 0; i < 10; i++) {\n//             for (uint j = 0; j < 10; j++) {\n//                 confusionMatrix[i][j] = 0;\n//             }\n//         }\n//     }\n\n//     // Retrieve the entire confusion matrix\n//     function getConfusionMatrix() public view returns (uint256[10][10] memory) {\n//         return confusionMatrix;\n//     }\n\n//     // Get a specific value from the confusion matrix\n//     function getConfusionMatrixValue(\n//         uint row,\n//         uint col\n//     ) public view returns (uint256) {\n//         require(row < 10 && col < 10, \"Index out of bounds\");\n//         return confusionMatrix[row][col];\n//     }\n\n//     // Update a specific value in the confusion matrix\n//     function updateConfusionMatrix(uint row, uint col, uint256 value) public {\n//         require(row < 10 && col < 10, \"Index out of bounds\");\n//         confusionMatrix[row][col] = value;\n//     }\n\n//     // Update an entire row in the confusion matrix\n//     function updateConfusionMatrixRow(\n//         uint rowIndex,\n//         uint256[10] calldata newRow\n//     ) public {\n//         require(rowIndex < 10, \"Index out of bounds\");\n//         for (uint j = 0; j < 10; j++) {\n//             confusionMatrix[rowIndex][j] = newRow[j];\n//         }\n//     }\n\n//     // function setClientData(address client, string calldata _dataPath) public {\n//     //     ClientData storage data = clientData[client];\n//     //     data.dataPath = _dataPath;\n\n//     //     // Check if this client is already added to the clientAddresses array\n//     //     bool isClientNew = true;\n//     //     for (uint i = 0; i < clientAddresses.length; i++) {\n//     //         if (clientAddresses[i] == client) {\n//     //             isClientNew = false;\n//     //             break;\n//     //         }\n//     //     }\n\n//     //     // If the client is new, add them to the clientAddresses array\n//     //     if (isClientNew) {\n//     //         clientAddresses.push(client);\n//     //     }\n//     // }\n\n//     function addClientDataPath(\n//         address client,\n//         string calldata _dataPath\n//     ) public {\n//         clientDataPaths[client].push(_dataPath); // Push new data path to the client's array\n\n//         // Check if this is the first entry for the client\n//         if (clientDataPaths[client].length == 1) {\n//             clientAddresses.push(client); // Add client to the clientAddresses if it's their first entry\n//         }\n//     }\n\n//     // // Retrieve client data\n//     // function getClientData(address client) public view returns (string memory) {\n//     //     return clientData[client].dataPath;\n//     // }\n\n//     // Function to get all data paths for a specific client\n//     function getClientDataPaths(\n//         address client\n//     ) public view returns (string[] memory) {\n//         return clientDataPaths[client];\n//     }\n\n//     // Retrieve all client addresses\n//     function getAllClientAddresses() public view returns (address[] memory) {\n//         return clientAddresses;\n//     }\n// }\n",
  "sourcePath": "/Users/aranmahal/Desktop/University/Year 4/Masters Project/Masters Project Code/contracts/FileStorage.sol",
  "compiler": {
    "name": "solc",
    "version": "0.8.2+commit.661d1103.Emscripten.clang"
  },
  "schemaVersion": "3.4.16",
  "updatedAt": "2024-04-23T11:01:35.976Z",
  "networkType": "ethereum",
  "devdoc": {
    "kind": "dev",
    "methods": {},
    "version": 1
  },
  "userdoc": {
    "kind": "user",
    "methods": {},
    "version": 1
  }
}