{
  "contractName": "FileStorage",
  "abi": [
    {
      "inputs": [
        {
          "internalType": "uint256",
          "name": "",
          "type": "uint256"
        }
      ],
      "name": "clientAddresses",
      "outputs": [
        {
          "internalType": "address",
          "name": "",
          "type": "address"
        }
      ],
      "stateMutability": "view",
      "type": "function",
      "constant": true
    },
    {
      "inputs": [
        {
          "internalType": "address",
          "name": "",
          "type": "address"
        },
        {
          "internalType": "uint256",
          "name": "",
          "type": "uint256"
        }
      ],
      "name": "clientContributions",
      "outputs": [
        {
          "internalType": "string",
          "name": "dataPath",
          "type": "string"
        }
      ],
      "stateMutability": "view",
      "type": "function",
      "constant": true
    },
    {
      "inputs": [
        {
          "internalType": "uint256",
          "name": "",
          "type": "uint256"
        },
        {
          "internalType": "uint256",
          "name": "",
          "type": "uint256"
        }
      ],
      "name": "confusionMatrix",
      "outputs": [
        {
          "internalType": "uint256",
          "name": "",
          "type": "uint256"
        }
      ],
      "stateMutability": "view",
      "type": "function",
      "constant": true
    },
    {
      "inputs": [],
      "name": "lastUpdated",
      "outputs": [
        {
          "internalType": "string",
          "name": "",
          "type": "string"
        }
      ],
      "stateMutability": "view",
      "type": "function",
      "constant": true
    },
    {
      "inputs": [
        {
          "internalType": "string",
          "name": "_newUpdate",
          "type": "string"
        }
      ],
      "name": "setLastUpdated",
      "outputs": [],
      "stateMutability": "nonpayable",
      "type": "function"
    },
    {
      "inputs": [],
      "name": "getLastUpdated",
      "outputs": [
        {
          "internalType": "string",
          "name": "",
          "type": "string"
        }
      ],
      "stateMutability": "view",
      "type": "function",
      "constant": true
    },
    {
      "inputs": [],
      "name": "initializeConfusionMatrix",
      "outputs": [],
      "stateMutability": "nonpayable",
      "type": "function"
    },
    {
      "inputs": [],
      "name": "getConfusionMatrix",
      "outputs": [
        {
          "internalType": "uint256[10][10]",
          "name": "",
          "type": "uint256[10][10]"
        }
      ],
      "stateMutability": "view",
      "type": "function",
      "constant": true
    },
    {
      "inputs": [
        {
          "internalType": "uint256",
          "name": "row",
          "type": "uint256"
        },
        {
          "internalType": "uint256",
          "name": "col",
          "type": "uint256"
        }
      ],
      "name": "getConfusionMatrixValue",
      "outputs": [
        {
          "internalType": "uint256",
          "name": "",
          "type": "uint256"
        }
      ],
      "stateMutability": "view",
      "type": "function",
      "constant": true
    },
    {
      "inputs": [
        {
          "internalType": "uint256",
          "name": "row",
          "type": "uint256"
        },
        {
          "internalType": "uint256",
          "name": "col",
          "type": "uint256"
        },
        {
          "internalType": "uint256",
          "name": "value",
          "type": "uint256"
        }
      ],
      "name": "updateConfusionMatrix",
      "outputs": [],
      "stateMutability": "nonpayable",
      "type": "function"
    },
    {
      "inputs": [
        {
          "internalType": "uint256",
          "name": "rowIndex",
          "type": "uint256"
        },
        {
          "internalType": "uint256[10]",
          "name": "newRow",
          "type": "uint256[10]"
        }
      ],
      "name": "updateConfusionMatrixRow",
      "outputs": [],
      "stateMutability": "nonpayable",
      "type": "function"
    },
    {
      "inputs": [
        {
          "internalType": "uint256[10]",
          "name": "_contributions",
          "type": "uint256[10]"
        },
        {
          "internalType": "string",
          "name": "_dataPath",
          "type": "string"
        }
      ],
      "name": "addClientData",
      "outputs": [],
      "stateMutability": "nonpayable",
      "type": "function"
    },
    {
      "inputs": [
        {
          "internalType": "address",
          "name": "_client",
          "type": "address"
        },
        {
          "internalType": "uint256",
          "name": "index",
          "type": "uint256"
        }
      ],
      "name": "getClientData",
      "outputs": [
        {
          "internalType": "uint256[10]",
          "name": "contributions",
          "type": "uint256[10]"
        },
        {
          "internalType": "string",
          "name": "dataPath",
          "type": "string"
        }
      ],
      "stateMutability": "view",
      "type": "function",
      "constant": true
    },
    {
      "inputs": [],
      "name": "getAllClientAddresses",
      "outputs": [
        {
          "internalType": "address[]",
          "name": "",
          "type": "address[]"
        }
      ],
      "stateMutability": "view",
      "type": "function",
      "constant": true
    },
    {
      "inputs": [
        {
          "internalType": "address",
          "name": "_client",
          "type": "address"
        }
      ],
      "name": "getAllContributionsForClient",
      "outputs": [
        {
          "components": [
            {
              "internalType": "uint256[10]",
              "name": "contributions",
              "type": "uint256[10]"
            },
            {
              "internalType": "string",
              "name": "dataPath",
              "type": "string"
            }
          ],
          "internalType": "struct FileStorage.ClientData[]",
          "name": "",
          "type": "tuple[]"
        }
      ],
      "stateMutability": "view",
      "type": "function",
      "constant": true
    },
    {
      "inputs": [
        {
          "internalType": "address",
          "name": "client",
          "type": "address"
        },
        {
          "internalType": "uint256",
          "name": "index",
          "type": "uint256"
        },
        {
          "internalType": "uint256[10]",
          "name": "newContributions",
          "type": "uint256[10]"
        }
      ],
      "name": "updateClientContributions",
      "outputs": [],
      "stateMutability": "nonpayable",
      "type": "function"
    }
  ],
  "bytecode": "0x60806040526040518060400160405280601881526020017f4e6f2063757272656e7420636f6e747269627574696f6e730000000000000000815250600090805190602001906200005192919062000066565b503480156200005f57600080fd5b506200017b565b828054620000749062000116565b90600052602060002090601f016020900481019282620000985760008555620000e4565b82601f10620000b357805160ff1916838001178555620000e4565b82800160010185558215620000e4579182015b82811115620000e3578251825591602001919060010190620000c6565b5b509050620000f39190620000f7565b5090565b5b8082111562000112576000816000905550600101620000f8565b5090565b600060028204905060018216806200012f57607f821691505b602082108114156200014657620001456200014c565b5b50919050565b7f4e487b7100000000000000000000000000000000000000000000000000000000600052602260045260246000fd5b611dcf806200018b6000396000f3fe608060405234801561001057600080fd5b50600436106101005760003560e01c806378121dd411610097578063dfa93fb511610066578063dfa93fb51461029c578063f1987e11146102b8578063f1fa14a6146102e8578063ff1dab011461030457610100565b806378121dd41461023857806396df593114610256578063cdf9b47914610260578063d0b06f5d1461027e57610100565b8063196727e9116100d3578063196727e9146101a05780632a3fe0da146101bc5780634e177af4146101ec578063591a24301461020857610100565b806304aa3d3b1461010557806308949c34146101355780630a43825d14610166578063124d33fe14610184575b600080fd5b61011f600480360381019061011a9190611546565b610334565b60405161012c9190611a05565b60405180910390f35b61014f600480360381019061014a91906113b9565b610405565b60405161015d929190611991565b60405180910390f35b61016e610679565b60405161017b9190611953565b60405180910390f35b61019e60048036038101906101999190611445565b6106fc565b005b6101ba60048036038101906101b59190611582565b6108e5565b005b6101d660048036038101906101d19190611546565b6109b5565b6040516101e39190611a05565b60405180910390f35b6102066004803603810190610201919061149f565b6109e3565b005b610222600480360381019061021d9190611390565b6109fd565b60405161022f919061196f565b60405180910390f35b610240610b72565b60405161024d91906119c3565b60405180910390f35b61025e610c04565b005b610268610cc3565b6040516102759190611931565b60405180910390f35b610286610d51565b60405161029391906119c3565b60405180910390f35b6102b660048036038101906102b191906113f5565b610ddf565b005b6102d260048036038101906102cd91906114e0565b610f00565b6040516102df9190611916565b60405180910390f35b61030260048036038101906102fd9190611509565b610f3f565b005b61031e600480360381019061031991906113b9565b61105f565b60405161032b91906119c3565b60405180910390f35b6000600a831080156103465750600a82105b610385576040517f08c379a000000000000000000000000000000000000000000000000000000000815260040161037c906119e5565b60405180910390fd5b600183600a81106103bf577f4e487b7100000000000000000000000000000000000000000000000000000000600052603260045260246000fd5b600a020182600a81106103fb577f4e487b7100000000000000000000000000000000000000000000000000000000600052603260045260246000fd5b0154905092915050565b61040d611122565b6060606560008573ffffffffffffffffffffffffffffffffffffffff1673ffffffffffffffffffffffffffffffffffffffff168152602001908152602001600020805490508310610493576040517f08c379a000000000000000000000000000000000000000000000000000000000815260040161048a906119e5565b60405180910390fd5b606560008573ffffffffffffffffffffffffffffffffffffffff1673ffffffffffffffffffffffffffffffffffffffff168152602001908152602001600020838154811061050a577f4e487b7100000000000000000000000000000000000000000000000000000000600052603260045260246000fd5b90600052602060002090600b0201600001606560008673ffffffffffffffffffffffffffffffffffffffff1673ffffffffffffffffffffffffffffffffffffffff1681526020019081526020016000208481548110610592577f4e487b7100000000000000000000000000000000000000000000000000000000600052603260045260246000fd5b90600052602060002090600b0201600a0181600a806020026040519081016040528092919082600a80156105db576020028201915b8154815260200190600101908083116105c7575b505050505091508080546105ee90611bf8565b80601f016020809104026020016040519081016040528092919081815260200182805461061a90611bf8565b80156106675780601f1061063c57610100808354040283529160200191610667565b820191906000526020600020905b81548152906001019060200180831161064a57829003601f168201915b50505050509050915091509250929050565b610681611145565b6001600a80602002604051908101604052809291906000905b828210156106f3578382600a0201600a806020026040519081016040528092919082600a80156106df576020028201915b8154815260200190600101908083116106cb575b50505050508152602001906001019061069a565b50505050905090565b6000604051806040016040528085600a806020026040519081016040528092919082600a60200280828437600081840152601f19601f820116905080830192505050505050815260200184848080601f016020809104026020016040519081016040528093929190818152602001838380828437600081840152601f19601f820116905080830192505050505050508152509050606560003373ffffffffffffffffffffffffffffffffffffffff1673ffffffffffffffffffffffffffffffffffffffff1681526020019081526020016000208190806001815401808255809150506001900390600052602060002090600b020160009091909190915060008201518160000190600a610810929190611173565b50602082015181600a01908051906020019061082d9291906111b3565b5050506001606560003373ffffffffffffffffffffffffffffffffffffffff1673ffffffffffffffffffffffffffffffffffffffff1681526020019081526020016000208054905014156108df576066339080600181540180825580915050600190039060005260206000200160009091909190916101000a81548173ffffffffffffffffffffffffffffffffffffffff021916908373ffffffffffffffffffffffffffffffffffffffff1602179055505b50505050565b600a831080156108f55750600a82105b610934576040517f08c379a000000000000000000000000000000000000000000000000000000000815260040161092b906119e5565b60405180910390fd5b80600184600a811061096f577f4e487b7100000000000000000000000000000000000000000000000000000000600052603260045260246000fd5b600a020183600a81106109ab577f4e487b7100000000000000000000000000000000000000000000000000000000600052603260045260246000fd5b0181905550505050565b600182600a81106109c557600080fd5b600a020181600a81106109d757600080fd5b01600091509150505481565b80600090805190602001906109f99291906111b3565b5050565b6060606560008373ffffffffffffffffffffffffffffffffffffffff1673ffffffffffffffffffffffffffffffffffffffff168152602001908152602001600020805480602002602001604051908101604052809291908181526020016000905b82821015610b6757838290600052602060002090600b020160405180604001604052908160008201600a806020026040519081016040528092919082600a8015610abd576020028201915b815481526020019060010190808311610aa9575b50505050508152602001600a82018054610ad690611bf8565b80601f0160208091040260200160405190810160405280929190818152602001828054610b0290611bf8565b8015610b4f5780601f10610b2457610100808354040283529160200191610b4f565b820191906000526020600020905b815481529060010190602001808311610b3257829003601f168201915b50505050508152505081526020019060010190610a5e565b505050509050919050565b606060008054610b8190611bf8565b80601f0160208091040260200160405190810160405280929190818152602001828054610bad90611bf8565b8015610bfa5780601f10610bcf57610100808354040283529160200191610bfa565b820191906000526020600020905b815481529060010190602001808311610bdd57829003601f168201915b5050505050905090565b60005b600a811015610cc05760005b600a811015610cac576000600183600a8110610c58577f4e487b7100000000000000000000000000000000000000000000000000000000600052603260045260246000fd5b600a020182600a8110610c94577f4e487b7100000000000000000000000000000000000000000000000000000000600052603260045260246000fd5b01819055508080610ca490611c5b565b915050610c13565b508080610cb890611c5b565b915050610c07565b50565b60606066805480602002602001604051908101604052809291908181526020018280548015610d4757602002820191906000526020600020905b8160009054906101000a900473ffffffffffffffffffffffffffffffffffffffff1673ffffffffffffffffffffffffffffffffffffffff1681526020019060010190808311610cfd575b5050505050905090565b60008054610d5e90611bf8565b80601f0160208091040260200160405190810160405280929190818152602001828054610d8a90611bf8565b8015610dd75780601f10610dac57610100808354040283529160200191610dd7565b820191906000526020600020905b815481529060010190602001808311610dba57829003601f168201915b505050505081565b606560008473ffffffffffffffffffffffffffffffffffffffff1673ffffffffffffffffffffffffffffffffffffffff168152602001908152602001600020805490508210610e63576040517f08c379a0000000000000000000000000000000000000000000000000000000008152600401610e5a906119e5565b60405180910390fd5b80606560008573ffffffffffffffffffffffffffffffffffffffff1673ffffffffffffffffffffffffffffffffffffffff1681526020019081526020016000208381548110610edb577f4e487b7100000000000000000000000000000000000000000000000000000000600052603260045260246000fd5b90600052602060002090600b020160000190600a610efa929190611239565b50505050565b60668181548110610f1057600080fd5b906000526020600020016000915054906101000a900473ffffffffffffffffffffffffffffffffffffffff1681565b600a8210610f82576040517f08c379a0000000000000000000000000000000000000000000000000000000008152600401610f79906119e5565b60405180910390fd5b60005b600a81101561105a578181600a8110610fc7577f4e487b7100000000000000000000000000000000000000000000000000000000600052603260045260246000fd5b6020020135600184600a8110611006577f4e487b7100000000000000000000000000000000000000000000000000000000600052603260045260246000fd5b600a020182600a8110611042577f4e487b7100000000000000000000000000000000000000000000000000000000600052603260045260246000fd5b0181905550808061105290611c5b565b915050610f85565b505050565b6065602052816000526040600020818154811061107b57600080fd5b90600052602060002090600b02016000915091505080600a01805461109f90611bf8565b80601f01602080910402602001604051908101604052809291908181526020018280546110cb90611bf8565b80156111185780601f106110ed57610100808354040283529160200191611118565b820191906000526020600020905b8154815290600101906020018083116110fb57829003601f168201915b5050505050905081565b604051806101400160405280600a90602082028036833780820191505090505090565b604051806101400160405280600a905b61115d611122565b8152602001906001900390816111555790505090565b82600a81019282156111a2579160200282015b828111156111a1578251825591602001919060010190611186565b5b5090506111af9190611279565b5090565b8280546111bf90611bf8565b90600052602060002090601f0160209004810192826111e15760008555611228565b82601f106111fa57805160ff1916838001178555611228565b82800160010185558215611228579182015b8281111561122757825182559160200191906001019061120c565b5b5090506112359190611279565b5090565b82600a8101928215611268579160200282015b8281111561126757823582559160200191906001019061124c565b5b5090506112759190611279565b5090565b5b8082111561129257600081600090555060010161127a565b5090565b60006112a96112a484611a45565b611a20565b9050828152602081018484840111156112c157600080fd5b6112cc848285611bb6565b509392505050565b6000813590506112e381611d6b565b92915050565b6000819050826020600a028201111561130157600080fd5b92915050565b60008083601f84011261131957600080fd5b8235905067ffffffffffffffff81111561133257600080fd5b60208301915083600182028301111561134a57600080fd5b9250929050565b600082601f83011261136257600080fd5b8135611372848260208601611296565b91505092915050565b60008135905061138a81611d82565b92915050565b6000602082840312156113a257600080fd5b60006113b0848285016112d4565b91505092915050565b600080604083850312156113cc57600080fd5b60006113da858286016112d4565b92505060206113eb8582860161137b565b9150509250929050565b6000806000610180848603121561140b57600080fd5b6000611419868287016112d4565b935050602061142a8682870161137b565b925050604061143b868287016112e9565b9150509250925092565b6000806000610160848603121561145b57600080fd5b6000611469868287016112e9565b93505061014084013567ffffffffffffffff81111561148757600080fd5b61149386828701611307565b92509250509250925092565b6000602082840312156114b157600080fd5b600082013567ffffffffffffffff8111156114cb57600080fd5b6114d784828501611351565b91505092915050565b6000602082840312156114f257600080fd5b60006115008482850161137b565b91505092915050565b600080610160838503121561151d57600080fd5b600061152b8582860161137b565b925050602061153c858286016112e9565b9150509250929050565b6000806040838503121561155957600080fd5b60006115678582860161137b565b92505060206115788582860161137b565b9150509250929050565b60008060006060848603121561159757600080fd5b60006115a58682870161137b565b93505060206115b68682870161137b565b92505060406115c78682870161137b565b9150509250925092565b60006115dd838361162e565b60208301905092915050565b60006115f58383611776565b6101408301905092915050565b600061160e83836118b9565b905092915050565b600061162283836118f8565b60208301905092915050565b61163781611b7a565b82525050565b61164681611b7a565b82525050565b600061165782611aaa565b6116618185611b15565b935061166c83611a76565b8060005b8381101561169d57815161168488826115d1565b975061168f83611ae1565b925050600181019050611670565b5085935050505092915050565b6116b381611ab5565b6116bd8184611b26565b92506116c882611a86565b8060005b838110156116f95781516116e087826115e9565b96506116eb83611aee565b9250506001810190506116cc565b505050505050565b600061170c82611ac0565b6117168185611b31565b93508360208202850161172885611a90565b8060005b8581101561176457848403895281516117458582611602565b945061175083611afb565b925060208a0199505060018101905061172c565b50829750879550505050505092915050565b61177f81611acb565b6117898184611b42565b925061179482611aa0565b8060005b838110156117c55781516117ac8782611616565b96506117b783611b08565b925050600181019050611798565b505050505050565b6117d681611acb565b6117e08184611b4d565b92506117eb82611aa0565b8060005b8381101561181c5781516118038782611616565b965061180e83611b08565b9250506001810190506117ef565b505050505050565b600061182f82611ad6565b6118398185611b58565b9350611849818560208601611bc5565b61185281611d31565b840191505092915050565b600061186882611ad6565b6118728185611b69565b9350611882818560208601611bc5565b61188b81611d31565b840191505092915050565b60006118a3601383611b69565b91506118ae82611d42565b602082019050919050565b6000610160830160008301516118d26000860182611776565b5060208301518482036101408601526118eb8282611824565b9150508091505092915050565b61190181611bac565b82525050565b61191081611bac565b82525050565b600060208201905061192b600083018461163d565b92915050565b6000602082019050818103600083015261194b818461164c565b905092915050565b6000610c808201905061196960008301846116aa565b92915050565b600060208201905081810360008301526119898184611701565b905092915050565b6000610160820190506119a760008301856117cd565b8181036101408301526119ba818461185d565b90509392505050565b600060208201905081810360008301526119dd818461185d565b905092915050565b600060208201905081810360008301526119fe81611896565b9050919050565b6000602082019050611a1a6000830184611907565b92915050565b6000611a2a611a3b565b9050611a368282611c2a565b919050565b6000604051905090565b600067ffffffffffffffff821115611a6057611a5f611d02565b5b611a6982611d31565b9050602081019050919050565b6000819050602082019050919050565b6000819050919050565b6000819050602082019050919050565b6000819050919050565b600081519050919050565b6000600a9050919050565b600081519050919050565b6000600a9050919050565b600081519050919050565b6000602082019050919050565b6000602082019050919050565b6000602082019050919050565b6000602082019050919050565b600082825260208201905092915050565b600081905092915050565b600082825260208201905092915050565b600081905092915050565b600081905092915050565b600082825260208201905092915050565b600082825260208201905092915050565b6000611b8582611b8c565b9050919050565b600073ffffffffffffffffffffffffffffffffffffffff82169050919050565b6000819050919050565b82818337600083830152505050565b60005b83811015611be3578082015181840152602081019050611bc8565b83811115611bf2576000848401525b50505050565b60006002820490506001821680611c1057607f821691505b60208210811415611c2457611c23611cd3565b5b50919050565b611c3382611d31565b810181811067ffffffffffffffff82111715611c5257611c51611d02565b5b80604052505050565b6000611c6682611bac565b91507fffffffffffffffffffffffffffffffffffffffffffffffffffffffffffffffff821415611c9957611c98611ca4565b5b600182019050919050565b7f4e487b7100000000000000000000000000000000000000000000000000000000600052601160045260246000fd5b7f4e487b7100000000000000000000000000000000000000000000000000000000600052602260045260246000fd5b7f4e487b7100000000000000000000000000000000000000000000000000000000600052604160045260246000fd5b6000601f19601f8301169050919050565b7f496e646578206f7574206f6620626f756e647300000000000000000000000000600082015250565b611d7481611b7a565b8114611d7f57600080fd5b50565b611d8b81611bac565b8114611d9657600080fd5b5056fea26469706673582212206ec58366ff0976e76189d80f8022e4bd58b53732b992f6eca71eb5bf3094a46a64736f6c63430008020033",
  "immutableReferences": {},
  "source": "// SPDX-License-Identifier: MIT\npragma solidity ^0.8.0;\n\ncontract FileStorage {\n    struct ClientData {\n        uint256[10] contributions;\n        string dataPath;\n    }\n\n    string public lastUpdated = \"No current contributions\";\n    uint256[10][10] public confusionMatrix;\n\n    mapping(address => ClientData[]) public clientContributions;\n    address[] public clientAddresses; // Array to track all client addresses\n\n    function setLastUpdated(string memory _newUpdate) public {\n        lastUpdated = _newUpdate;\n    }\n\n    function getLastUpdated() public view returns (string memory) {\n        return lastUpdated;\n    }\n\n    function initializeConfusionMatrix() public {\n        for (uint256 i = 0; i < 10; i++) {\n            for (uint256 j = 0; j < 10; j++) {\n                confusionMatrix[i][j] = 0;\n            }\n        }\n    }\n\n    function getConfusionMatrix() public view returns (uint256[10][10] memory) {\n        return confusionMatrix;\n    }\n\n    function getConfusionMatrixValue(\n        uint256 row,\n        uint256 col\n    ) public view returns (uint256) {\n        require(row < 10 && col < 10, \"Index out of bounds\");\n        return confusionMatrix[row][col];\n    }\n\n    function updateConfusionMatrix(\n        uint256 row,\n        uint256 col,\n        uint256 value\n    ) public {\n        require(row < 10 && col < 10, \"Index out of bounds\");\n        confusionMatrix[row][col] = value;\n    }\n\n    function updateConfusionMatrixRow(\n        uint256 rowIndex,\n        uint256[10] calldata newRow\n    ) public {\n        require(rowIndex < 10, \"Index out of bounds\");\n        for (uint256 j = 0; j < 10; j++) {\n            confusionMatrix[rowIndex][j] = newRow[j];\n        }\n    }\n\n    function addClientData(\n        uint256[10] calldata _contributions,\n        string calldata _dataPath\n    ) public {\n        ClientData memory newEntry = ClientData({\n            contributions: _contributions,\n            dataPath: _dataPath\n        });\n        clientContributions[msg.sender].push(newEntry);\n\n        // Check if this is the first time the client is contributing\n        if (clientContributions[msg.sender].length == 1) {\n            clientAddresses.push(msg.sender); // Add new client address to the array\n        }\n    }\n\n    function getClientData(\n        address _client,\n        uint index\n    )\n        public\n        view\n        returns (uint256[10] memory contributions, string memory dataPath)\n    {\n        require(\n            index < clientContributions[_client].length,\n            \"Index out of bounds\"\n        );\n        return (\n            clientContributions[_client][index].contributions,\n            clientContributions[_client][index].dataPath\n        );\n    }\n\n    // Function to retrieve all client addresses\n    function getAllClientAddresses() public view returns (address[] memory) {\n        return clientAddresses;\n    }\n\n    function getAllContributionsForClient(\n        address _client\n    ) public view returns (ClientData[] memory) {\n        return clientContributions[_client];\n    }\n\n    function updateClientContributions(\n        address client,\n        uint index,\n        uint256[10] calldata newContributions\n    ) public {\n        require(\n            index < clientContributions[client].length,\n            \"Index out of bounds\"\n        );\n        clientContributions[client][index].contributions = newContributions;\n    }\n}\n",
  "sourcePath": "/Users/aranmahal/Desktop/University/Year 4/Masters Project/Masters Project Code/contracts/FileStorage.sol",
  "compiler": {
    "name": "solc",
    "version": "0.8.2+commit.661d1103.Emscripten.clang"
  },
  "schemaVersion": "3.4.16",
  "updatedAt": "2024-04-21T13:09:42.983Z",
  "networkType": "ethereum",
  "devdoc": {
    "kind": "dev",
    "methods": {},
    "version": 1
  },
  "userdoc": {
    "kind": "user",
    "methods": {},
    "version": 1
  }
}