{
  "contractName": "FileStorage",
  "abi": [
    {
      "inputs": [],
      "name": "accuracy",
      "outputs": [
        {
          "internalType": "string",
          "name": "",
          "type": "string"
        }
      ],
      "stateMutability": "view",
      "type": "function",
      "constant": true
    },
    {
      "inputs": [
        {
          "internalType": "uint256",
          "name": "",
          "type": "uint256"
        }
      ],
      "name": "clientAddresses",
      "outputs": [
        {
          "internalType": "address",
          "name": "",
          "type": "address"
        }
      ],
      "stateMutability": "view",
      "type": "function",
      "constant": true
    },
    {
      "inputs": [
        {
          "internalType": "address",
          "name": "",
          "type": "address"
        },
        {
          "internalType": "uint256",
          "name": "",
          "type": "uint256"
        }
      ],
      "name": "clientFiles",
      "outputs": [
        {
          "internalType": "string",
          "name": "",
          "type": "string"
        }
      ],
      "stateMutability": "view",
      "type": "function",
      "constant": true
    },
    {
      "inputs": [
        {
          "internalType": "uint256",
          "name": "",
          "type": "uint256"
        },
        {
          "internalType": "uint256",
          "name": "",
          "type": "uint256"
        }
      ],
      "name": "confusionMatrix",
      "outputs": [
        {
          "internalType": "uint256",
          "name": "",
          "type": "uint256"
        }
      ],
      "stateMutability": "view",
      "type": "function",
      "constant": true
    },
    {
      "inputs": [],
      "name": "lastUpdated",
      "outputs": [
        {
          "internalType": "string",
          "name": "",
          "type": "string"
        }
      ],
      "stateMutability": "view",
      "type": "function",
      "constant": true
    },
    {
      "inputs": [
        {
          "internalType": "string",
          "name": "_accuracy",
          "type": "string"
        }
      ],
      "name": "setAccuracy",
      "outputs": [],
      "stateMutability": "nonpayable",
      "type": "function"
    },
    {
      "inputs": [],
      "name": "getAccuracy",
      "outputs": [
        {
          "internalType": "string",
          "name": "",
          "type": "string"
        }
      ],
      "stateMutability": "view",
      "type": "function",
      "constant": true
    },
    {
      "inputs": [
        {
          "internalType": "address",
          "name": "clientAddress",
          "type": "address"
        },
        {
          "internalType": "string",
          "name": "_dataPath",
          "type": "string"
        }
      ],
      "name": "addClientData",
      "outputs": [],
      "stateMutability": "nonpayable",
      "type": "function"
    },
    {
      "inputs": [
        {
          "internalType": "address",
          "name": "_client",
          "type": "address"
        },
        {
          "internalType": "uint256",
          "name": "index",
          "type": "uint256"
        }
      ],
      "name": "getClientData",
      "outputs": [
        {
          "internalType": "string",
          "name": "dataPath",
          "type": "string"
        }
      ],
      "stateMutability": "view",
      "type": "function",
      "constant": true
    },
    {
      "inputs": [
        {
          "internalType": "address",
          "name": "client",
          "type": "address"
        }
      ],
      "name": "getClientFileCount",
      "outputs": [
        {
          "internalType": "uint256",
          "name": "",
          "type": "uint256"
        }
      ],
      "stateMutability": "view",
      "type": "function",
      "constant": true
    },
    {
      "inputs": [],
      "name": "getAllClientAddresses",
      "outputs": [
        {
          "internalType": "address[]",
          "name": "",
          "type": "address[]"
        }
      ],
      "stateMutability": "view",
      "type": "function",
      "constant": true
    },
    {
      "inputs": [
        {
          "internalType": "string",
          "name": "_newUpdate",
          "type": "string"
        }
      ],
      "name": "setLastUpdated",
      "outputs": [],
      "stateMutability": "nonpayable",
      "type": "function"
    },
    {
      "inputs": [],
      "name": "getLastUpdated",
      "outputs": [
        {
          "internalType": "string",
          "name": "",
          "type": "string"
        }
      ],
      "stateMutability": "view",
      "type": "function",
      "constant": true
    },
    {
      "inputs": [],
      "name": "initializeConfusionMatrix",
      "outputs": [],
      "stateMutability": "nonpayable",
      "type": "function"
    },
    {
      "inputs": [
        {
          "internalType": "uint256",
          "name": "row",
          "type": "uint256"
        },
        {
          "internalType": "uint256",
          "name": "col",
          "type": "uint256"
        }
      ],
      "name": "getConfusionMatrixValue",
      "outputs": [
        {
          "internalType": "uint256",
          "name": "",
          "type": "uint256"
        }
      ],
      "stateMutability": "view",
      "type": "function",
      "constant": true
    },
    {
      "inputs": [
        {
          "internalType": "uint256",
          "name": "rowIndex",
          "type": "uint256"
        },
        {
          "internalType": "uint256[10]",
          "name": "newRow",
          "type": "uint256[10]"
        }
      ],
      "name": "updateConfusionMatrixRow",
      "outputs": [],
      "stateMutability": "nonpayable",
      "type": "function"
    }
  ],
  "bytecode": "0x60806040526040518060400160405280601881526020017f4e6f2063757272656e7420636f6e747269627574696f6e730000000000000000815250600090805190602001906200005192919062000098565b50604051806060016040528060268152602001620016b560269139606790805190602001906200008392919062000098565b503480156200009157600080fd5b50620001ad565b828054620000a69062000148565b90600052602060002090601f016020900481019282620000ca576000855562000116565b82601f10620000e557805160ff191683800117855562000116565b8280016001018555821562000116579182015b8281111562000115578251825591602001919060010190620000f8565b5b50905062000125919062000129565b5090565b5b80821115620001445760008160009055506001016200012a565b5090565b600060028204905060018216806200016157607f821691505b602082108114156200017857620001776200017e565b5b50919050565b7f4e487b7100000000000000000000000000000000000000000000000000000000600052602260045260246000fd5b6114f880620001bd6000396000f3fe608060405234801561001057600080fd5b50600436106101005760003560e01c806396df593111610097578063cdf9b47911610066578063cdf9b479146102ad578063d0b06f5d146102cb578063f1987e11146102e9578063f1fa14a61461031957610100565b806396df593114610227578063b04792ba14610231578063bd9302cc14610261578063c353fd761461029157610100565b806378121dd4116100d357806378121dd4146101b15780637ee32279146101cf57806383835c01146101eb57806392abadc51461020957610100565b806304aa3d3b1461010557806308949c34146101355780632a3fe0da146101655780634e177af414610195575b600080fd5b61011f600480360381019061011a9190611023565b610335565b60405161012c91906111dd565b60405180910390f35b61014f600480360381019061014a9190610f40565b610406565b60405161015c919061119b565b60405180910390f35b61017f600480360381019061017a9190611023565b61051a565b60405161018c91906111dd565b60405180910390f35b6101af60048036038101906101aa9190610f7c565b610548565b005b6101b9610562565b6040516101c6919061119b565b60405180910390f35b6101e960048036038101906101e49190610ee8565b6105f4565b005b6101f3610723565b604051610200919061119b565b60405180910390f35b6102116107b1565b60405161021e919061119b565b60405180910390f35b61022f610843565b005b61024b60048036038101906102469190610f40565b610902565b604051610258919061119b565b60405180910390f35b61027b60048036038101906102769190610ebf565b6109bb565b60405161028891906111dd565b60405180910390f35b6102ab60048036038101906102a69190610f7c565b610a07565b005b6102b5610a21565b6040516102c29190611179565b60405180910390f35b6102d3610aaf565b6040516102e0919061119b565b60405180910390f35b61030360048036038101906102fe9190610fbd565b610b3d565b604051610310919061115e565b60405180910390f35b610333600480360381019061032e9190610fe6565b610b7c565b005b6000600a831080156103475750600a82105b610386576040517f08c379a000000000000000000000000000000000000000000000000000000000815260040161037d906111bd565b60405180910390fd5b600183600a81106103c0577f4e487b7100000000000000000000000000000000000000000000000000000000600052603260045260246000fd5b600a020182600a81106103fc577f4e487b7100000000000000000000000000000000000000000000000000000000600052603260045260246000fd5b0154905092915050565b6060606560008473ffffffffffffffffffffffffffffffffffffffff1673ffffffffffffffffffffffffffffffffffffffff168152602001908152602001600020828154811061047f577f4e487b7100000000000000000000000000000000000000000000000000000000600052603260045260246000fd5b90600052602060002001805461049490611321565b80601f01602080910402602001604051908101604052809291908181526020018280546104c090611321565b801561050d5780601f106104e25761010080835404028352916020019161050d565b820191906000526020600020905b8154815290600101906020018083116104f057829003601f168201915b5050505050905092915050565b600182600a811061052a57600080fd5b600a020181600a811061053c57600080fd5b01600091509150505481565b806000908051906020019061055e929190610c9c565b5050565b60606000805461057190611321565b80601f016020809104026020016040519081016040528092919081815260200182805461059d90611321565b80156105ea5780601f106105bf576101008083540402835291602001916105ea565b820191906000526020600020905b8154815290600101906020018083116105cd57829003601f168201915b5050505050905090565b606560008473ffffffffffffffffffffffffffffffffffffffff1673ffffffffffffffffffffffffffffffffffffffff16815260200190815260200160002082829091806001815401808255809150506001900390600052602060002001600090919290919290919290919250919061066e929190610d22565b506001606560008573ffffffffffffffffffffffffffffffffffffffff1673ffffffffffffffffffffffffffffffffffffffff16815260200190815260200160002080549050141561071e576066839080600181540180825580915050600190039060005260206000200160009091909190916101000a81548173ffffffffffffffffffffffffffffffffffffffff021916908373ffffffffffffffffffffffffffffffffffffffff1602179055505b505050565b6067805461073090611321565b80601f016020809104026020016040519081016040528092919081815260200182805461075c90611321565b80156107a95780601f1061077e576101008083540402835291602001916107a9565b820191906000526020600020905b81548152906001019060200180831161078c57829003601f168201915b505050505081565b6060606780546107c090611321565b80601f01602080910402602001604051908101604052809291908181526020018280546107ec90611321565b80156108395780601f1061080e57610100808354040283529160200191610839565b820191906000526020600020905b81548152906001019060200180831161081c57829003601f168201915b5050505050905090565b60005b600a8110156108ff5760005b600a8110156108eb576000600183600a8110610897577f4e487b7100000000000000000000000000000000000000000000000000000000600052603260045260246000fd5b600a020182600a81106108d3577f4e487b7100000000000000000000000000000000000000000000000000000000600052603260045260246000fd5b018190555080806108e390611384565b915050610852565b5080806108f790611384565b915050610846565b50565b6065602052816000526040600020818154811061091e57600080fd5b9060005260206000200160009150915050805461093a90611321565b80601f016020809104026020016040519081016040528092919081815260200182805461096690611321565b80156109b35780601f10610988576101008083540402835291602001916109b3565b820191906000526020600020905b81548152906001019060200180831161099657829003601f168201915b505050505081565b6000606560008373ffffffffffffffffffffffffffffffffffffffff1673ffffffffffffffffffffffffffffffffffffffff168152602001908152602001600020805490509050919050565b8060679080519060200190610a1d929190610c9c565b5050565b60606066805480602002602001604051908101604052809291908181526020018280548015610aa557602002820191906000526020600020905b8160009054906101000a900473ffffffffffffffffffffffffffffffffffffffff1673ffffffffffffffffffffffffffffffffffffffff1681526020019060010190808311610a5b575b5050505050905090565b60008054610abc90611321565b80601f0160208091040260200160405190810160405280929190818152602001828054610ae890611321565b8015610b355780601f10610b0a57610100808354040283529160200191610b35565b820191906000526020600020905b815481529060010190602001808311610b1857829003601f168201915b505050505081565b60668181548110610b4d57600080fd5b906000526020600020016000915054906101000a900473ffffffffffffffffffffffffffffffffffffffff1681565b600a8210610bbf576040517f08c379a0000000000000000000000000000000000000000000000000000000008152600401610bb6906111bd565b60405180910390fd5b60005b600a811015610c97578181600a8110610c04577f4e487b7100000000000000000000000000000000000000000000000000000000600052603260045260246000fd5b6020020135600184600a8110610c43577f4e487b7100000000000000000000000000000000000000000000000000000000600052603260045260246000fd5b600a020182600a8110610c7f577f4e487b7100000000000000000000000000000000000000000000000000000000600052603260045260246000fd5b01819055508080610c8f90611384565b915050610bc2565b505050565b828054610ca890611321565b90600052602060002090601f016020900481019282610cca5760008555610d11565b82601f10610ce357805160ff1916838001178555610d11565b82800160010185558215610d11579182015b82811115610d10578251825591602001919060010190610cf5565b5b509050610d1e9190610da8565b5090565b828054610d2e90611321565b90600052602060002090601f016020900481019282610d505760008555610d97565b82601f10610d6957803560ff1916838001178555610d97565b82800160010185558215610d97579182015b82811115610d96578235825591602001919060010190610d7b565b5b509050610da49190610da8565b5090565b5b80821115610dc1576000816000905550600101610da9565b5090565b6000610dd8610dd38461121d565b6111f8565b905082815260208101848484011115610df057600080fd5b610dfb8482856112df565b509392505050565b600081359050610e1281611494565b92915050565b6000819050826020600a0282011115610e3057600080fd5b92915050565b60008083601f840112610e4857600080fd5b8235905067ffffffffffffffff811115610e6157600080fd5b602083019150836001820283011115610e7957600080fd5b9250929050565b600082601f830112610e9157600080fd5b8135610ea1848260208601610dc5565b91505092915050565b600081359050610eb9816114ab565b92915050565b600060208284031215610ed157600080fd5b6000610edf84828501610e03565b91505092915050565b600080600060408486031215610efd57600080fd5b6000610f0b86828701610e03565b935050602084013567ffffffffffffffff811115610f2857600080fd5b610f3486828701610e36565b92509250509250925092565b60008060408385031215610f5357600080fd5b6000610f6185828601610e03565b9250506020610f7285828601610eaa565b9150509250929050565b600060208284031215610f8e57600080fd5b600082013567ffffffffffffffff811115610fa857600080fd5b610fb484828501610e80565b91505092915050565b600060208284031215610fcf57600080fd5b6000610fdd84828501610eaa565b91505092915050565b6000806101608385031215610ffa57600080fd5b600061100885828601610eaa565b925050602061101985828601610e18565b9150509250929050565b6000806040838503121561103657600080fd5b600061104485828601610eaa565b925050602061105585828601610eaa565b9150509250929050565b600061106b8383611077565b60208301905092915050565b611080816112a3565b82525050565b61108f816112a3565b82525050565b60006110a08261125e565b6110aa8185611281565b93506110b58361124e565b8060005b838110156110e65781516110cd888261105f565b97506110d883611274565b9250506001810190506110b9565b5085935050505092915050565b60006110fe82611269565b6111088185611292565b93506111188185602086016112ee565b6111218161145a565b840191505092915050565b6000611139601383611292565b91506111448261146b565b602082019050919050565b611158816112d5565b82525050565b60006020820190506111736000830184611086565b92915050565b600060208201905081810360008301526111938184611095565b905092915050565b600060208201905081810360008301526111b581846110f3565b905092915050565b600060208201905081810360008301526111d68161112c565b9050919050565b60006020820190506111f2600083018461114f565b92915050565b6000611202611213565b905061120e8282611353565b919050565b6000604051905090565b600067ffffffffffffffff8211156112385761123761142b565b5b6112418261145a565b9050602081019050919050565b6000819050602082019050919050565b600081519050919050565b600081519050919050565b6000602082019050919050565b600082825260208201905092915050565b600082825260208201905092915050565b60006112ae826112b5565b9050919050565b600073ffffffffffffffffffffffffffffffffffffffff82169050919050565b6000819050919050565b82818337600083830152505050565b60005b8381101561130c5780820151818401526020810190506112f1565b8381111561131b576000848401525b50505050565b6000600282049050600182168061133957607f821691505b6020821081141561134d5761134c6113fc565b5b50919050565b61135c8261145a565b810181811067ffffffffffffffff8211171561137b5761137a61142b565b5b80604052505050565b600061138f826112d5565b91507fffffffffffffffffffffffffffffffffffffffffffffffffffffffffffffffff8214156113c2576113c16113cd565b5b600182019050919050565b7f4e487b7100000000000000000000000000000000000000000000000000000000600052601160045260246000fd5b7f4e487b7100000000000000000000000000000000000000000000000000000000600052602260045260246000fd5b7f4e487b7100000000000000000000000000000000000000000000000000000000600052604160045260246000fd5b6000601f19601f8301169050919050565b7f496e646578206f7574206f6620626f756e647300000000000000000000000000600082015250565b61149d816112a3565b81146114a857600080fd5b50565b6114b4816112d5565b81146114bf57600080fd5b5056fea264697066735822122029ae023fc74495132263e5be08556579d51b01ca55691314ee6ae3a6d19f71a764736f6c634300080200334e6f2063757272656e7420636f6e747269627574696f6e7320736f2030206163637572616379",
  "immutableReferences": {},
  "source": "// SPDX-License-Identifier: MIT\npragma solidity ^0.8.0;\n\ncontract FileStorage {\n    struct ClientData {\n        string dataPath;\n    }\n\n    string public lastUpdated = \"No current contributions\";\n    uint256[10][10] public confusionMatrix;\n    mapping(address => string[]) public clientFiles;\n    address[] public clientAddresses; // Array to track all client addresses\n    string public accuracy = \"No current contributions so 0 accuracy\";\n\n    function setAccuracy(string memory _accuracy) public {\n        // You can add access control modifiers here\n        accuracy = _accuracy;\n    }\n\n    function getAccuracy() public view returns (string memory) {\n        return accuracy;\n    }\n\n    function addClientData(\n        address clientAddress,\n        string calldata _dataPath\n    ) public {\n        // Security checks needed here to ensure only authorized users can call this function\n        clientFiles[clientAddress].push(_dataPath);\n        if (clientFiles[clientAddress].length == 1) {\n            clientAddresses.push(clientAddress); // Add new client address to the array\n        }\n    }\n\n    function getClientData(\n        address _client,\n        uint index\n    ) public view returns (string memory dataPath) {\n        return clientFiles[_client][index];\n    }\n\n    function getClientFileCount(address client) public view returns (uint) {\n        return clientFiles[client].length;\n    }\n\n    function getAllClientAddresses() public view returns (address[] memory) {\n        return clientAddresses;\n    }\n\n    // Function to update the last updated timestamp\n    function setLastUpdated(string memory _newUpdate) public {\n        lastUpdated = _newUpdate;\n    }\n\n    // Function to get the last updated timestamp\n    function getLastUpdated() public view returns (string memory) {\n        return lastUpdated;\n    }\n\n    // Initialize the confusion matrix with zeros\n    function initializeConfusionMatrix() public {\n        for (uint i = 0; i < 10; i++) {\n            for (uint j = 0; j < 10; j++) {\n                confusionMatrix[i][j] = 0;\n            }\n        }\n    }\n\n    // Get a specific value from the confusion matrix\n    function getConfusionMatrixValue(\n        uint row,\n        uint col\n    ) public view returns (uint256) {\n        require(row < 10 && col < 10, \"Index out of bounds\");\n        return confusionMatrix[row][col];\n    }\n\n    // Update an entire row in the confusion matrix\n    function updateConfusionMatrixRow(\n        uint rowIndex,\n        uint256[10] calldata newRow\n    ) public {\n        require(rowIndex < 10, \"Index out of bounds\");\n        for (uint j = 0; j < 10; j++) {\n            confusionMatrix[rowIndex][j] = newRow[j];\n        }\n    }\n}\n",
  "sourcePath": "/Users/aranmahal/Desktop/University/Year 4/Masters Project/Masters Project Code/contracts/FileStorage.sol",
  "compiler": {
    "name": "solc",
    "version": "0.8.2+commit.661d1103.Emscripten.clang"
  },
  "schemaVersion": "3.4.16",
  "updatedAt": "2024-05-05T13:04:37.979Z",
  "networkType": "ethereum",
  "devdoc": {
    "kind": "dev",
    "methods": {},
    "version": 1
  },
  "userdoc": {
    "kind": "user",
    "methods": {},
    "version": 1
  }
}