{
  "contractName": "FileStorage",
  "abi": [
    {
      "inputs": [],
      "name": "fileName",
      "outputs": [
        {
          "internalType": "string",
          "name": "",
          "type": "string"
        }
      ],
      "stateMutability": "view",
      "type": "function",
      "constant": true
    },
    {
      "inputs": [],
      "name": "lastUpdated",
      "outputs": [
        {
          "internalType": "string",
          "name": "",
          "type": "string"
        }
      ],
      "stateMutability": "view",
      "type": "function",
      "constant": true
    },
    {
      "inputs": [],
      "name": "versionCounter",
      "outputs": [
        {
          "internalType": "uint256",
          "name": "",
          "type": "uint256"
        }
      ],
      "stateMutability": "view",
      "type": "function",
      "constant": true
    },
    {
      "inputs": [
        {
          "internalType": "string",
          "name": "_fileName",
          "type": "string"
        },
        {
          "internalType": "string",
          "name": "_dateTime",
          "type": "string"
        }
      ],
      "name": "setfileName",
      "outputs": [],
      "stateMutability": "nonpayable",
      "type": "function"
    },
    {
      "inputs": [],
      "name": "getfileName",
      "outputs": [
        {
          "internalType": "string",
          "name": "",
          "type": "string"
        }
      ],
      "stateMutability": "view",
      "type": "function",
      "constant": true
    },
    {
      "inputs": [],
      "name": "getLastUpdated",
      "outputs": [
        {
          "internalType": "string",
          "name": "",
          "type": "string"
        }
      ],
      "stateMutability": "view",
      "type": "function",
      "constant": true
    },
    {
      "inputs": [],
      "name": "getVersionCounter",
      "outputs": [
        {
          "internalType": "uint256",
          "name": "",
          "type": "uint256"
        }
      ],
      "stateMutability": "view",
      "type": "function",
      "constant": true
    }
  ],
  "bytecode": "0x6080604052600060025534801561001557600080fd5b50610835806100256000396000f3fe608060405234801561001057600080fd5b506004361061007d5760003560e01c8063b53409fe1161005b578063b53409fe146100da578063d0b06f5d146100f8578063d8f22e7b14610116578063dd6d30c1146101345761007d565b806378121dd4146100825780637fb6c4fa146100a0578063a12c883a146100be575b600080fd5b61008a610152565b60405161009791906105ad565b60405180910390f35b6100a86101e4565b6040516100b591906105ad565b60405180910390f35b6100d860048036038101906100d391906104f9565b610272565b005b6100e26102be565b6040516100ef91906105ad565b60405180910390f35b610100610350565b60405161010d91906105ad565b60405180910390f35b61011e6103de565b60405161012b91906105cf565b60405180910390f35b61013c6103e8565b60405161014991906105cf565b60405180910390f35b606060018054610161906106fe565b80601f016020809104026020016040519081016040528092919081815260200182805461018d906106fe565b80156101da5780601f106101af576101008083540402835291602001916101da565b820191906000526020600020905b8154815290600101906020018083116101bd57829003601f168201915b5050505050905090565b600080546101f1906106fe565b80601f016020809104026020016040519081016040528092919081815260200182805461021d906106fe565b801561026a5780601f1061023f5761010080835404028352916020019161026a565b820191906000526020600020905b81548152906001019060200180831161024d57829003601f168201915b505050505081565b81600090805190602001906102889291906103ee565b50806001908051906020019061029f9291906103ee565b506001600260008282546102b3919061065c565b925050819055505050565b6060600080546102cd906106fe565b80601f01602080910402602001604051908101604052809291908181526020018280546102f9906106fe565b80156103465780601f1061031b57610100808354040283529160200191610346565b820191906000526020600020905b81548152906001019060200180831161032957829003601f168201915b5050505050905090565b6001805461035d906106fe565b80601f0160208091040260200160405190810160405280929190818152602001828054610389906106fe565b80156103d65780601f106103ab576101008083540402835291602001916103d6565b820191906000526020600020905b8154815290600101906020018083116103b957829003601f168201915b505050505081565b6000600254905090565b60025481565b8280546103fa906106fe565b90600052602060002090601f01602090048101928261041c5760008555610463565b82601f1061043557805160ff1916838001178555610463565b82800160010185558215610463579182015b82811115610462578251825591602001919060010190610447565b5b5090506104709190610474565b5090565b5b8082111561048d576000816000905550600101610475565b5090565b60006104a461049f8461060f565b6105ea565b9050828152602081018484840111156104bc57600080fd5b6104c78482856106bc565b509392505050565b600082601f8301126104e057600080fd5b81356104f0848260208601610491565b91505092915050565b6000806040838503121561050c57600080fd5b600083013567ffffffffffffffff81111561052657600080fd5b610532858286016104cf565b925050602083013567ffffffffffffffff81111561054f57600080fd5b61055b858286016104cf565b9150509250929050565b600061057082610640565b61057a818561064b565b935061058a8185602086016106cb565b610593816107ee565b840191505092915050565b6105a7816106b2565b82525050565b600060208201905081810360008301526105c78184610565565b905092915050565b60006020820190506105e4600083018461059e565b92915050565b60006105f4610605565b90506106008282610730565b919050565b6000604051905090565b600067ffffffffffffffff82111561062a576106296107bf565b5b610633826107ee565b9050602081019050919050565b600081519050919050565b600082825260208201905092915050565b6000610667826106b2565b9150610672836106b2565b9250827fffffffffffffffffffffffffffffffffffffffffffffffffffffffffffffffff038211156106a7576106a6610761565b5b828201905092915050565b6000819050919050565b82818337600083830152505050565b60005b838110156106e95780820151818401526020810190506106ce565b838111156106f8576000848401525b50505050565b6000600282049050600182168061071657607f821691505b6020821081141561072a57610729610790565b5b50919050565b610739826107ee565b810181811067ffffffffffffffff82111715610758576107576107bf565b5b80604052505050565b7f4e487b7100000000000000000000000000000000000000000000000000000000600052601160045260246000fd5b7f4e487b7100000000000000000000000000000000000000000000000000000000600052602260045260246000fd5b7f4e487b7100000000000000000000000000000000000000000000000000000000600052604160045260246000fd5b6000601f19601f830116905091905056fea26469706673582212204eab55f5f06f1340892543485a5317894b3807faf07e3f298d4d0e6b5e7468da64736f6c63430008020033",
  "immutableReferences": {},
  "source": "// SPDX-License-Identifier: MIT\npragma solidity ^0.8.0;\n\ncontract FileStorage {\n    string public fileName;\n    string public lastUpdated; // Store date and time as a string\n    uint256 public versionCounter = 0; // Initialize the version counter\n\n    function setfileName(\n        string memory _fileName,\n        string memory _dateTime\n    ) public {\n        fileName = _fileName;\n        lastUpdated = _dateTime;\n        versionCounter += 1;\n    }\n\n    function getfileName() public view returns (string memory) {\n        return fileName;\n    }\n\n    function getLastUpdated() public view returns (string memory) {\n        return lastUpdated;\n    }\n\n    // Function to get the current version counter\n    function getVersionCounter() public view returns (uint256) {\n        return versionCounter;\n    }\n}\n",
  "sourcePath": "/Users/aranmahal/Desktop/University/Year 4/Masters Project/Masters Project Code/contracts/FileStorage.sol",
  "compiler": {
    "name": "solc",
    "version": "0.8.2+commit.661d1103.Emscripten.clang"
  },
  "schemaVersion": "3.4.16",
  "updatedAt": "2024-04-08T09:39:31.881Z",
  "networkType": "ethereum",
  "devdoc": {
    "kind": "dev",
    "methods": {},
    "version": 1
  },
  "userdoc": {
    "kind": "user",
    "methods": {},
    "version": 1
  }
}